{
  "_format": "hh-sol-artifact-1",
  "contractName": "WealthManagement",
  "sourceName": "contracts/Assessment.sol",
  "abi": [
    {
      "inputs": [
        {
          "internalType": "uint256",
          "name": "initialFunds",
          "type": "uint256"
        },
        {
          "internalType": "uint256",
          "name": "key",
          "type": "uint256"
        }
      ],
      "stateMutability": "payable",
      "type": "constructor"
    },
    {
      "inputs": [
        {
          "internalType": "uint256",
          "name": "balance",
          "type": "uint256"
        },
        {
          "internalType": "uint256",
          "name": "withdrawalAmount",
          "type": "uint256"
        }
      ],
      "name": "InsufficientFunds",
      "type": "error"
    },
    {
      "anonymous": false,
      "inputs": [
        {
          "indexed": false,
          "internalType": "uint256",
          "name": "amount",
          "type": "uint256"
        }
      ],
      "name": "FundsAdded",
      "type": "event"
    },
    {
      "anonymous": false,
      "inputs": [
        {
          "indexed": false,
          "internalType": "uint256",
          "name": "amount",
          "type": "uint256"
        }
      ],
      "name": "FundsWithdrawn",
      "type": "event"
    },
    {
      "anonymous": false,
      "inputs": [
        {
          "indexed": false,
          "internalType": "uint256",
          "name": "newKey",
          "type": "uint256"
        }
      ],
      "name": "KeyChanged",
      "type": "event"
    },
    {
      "anonymous": false,
      "inputs": [
        {
          "indexed": false,
          "internalType": "uint256",
          "name": "requestedAmount",
          "type": "uint256"
        },
        {
          "indexed": false,
          "internalType": "uint256",
          "name": "termInMonths",
          "type": "uint256"
        },
        {
          "indexed": false,
          "internalType": "uint256",
          "name": "monthlyInstallment",
          "type": "uint256"
        }
      ],
      "name": "LoanRequested",
      "type": "event"
    },
    {
      "inputs": [],
      "name": "accountFunds",
      "outputs": [
        {
          "internalType": "uint256",
          "name": "",
          "type": "uint256"
        }
      ],
      "stateMutability": "view",
      "type": "function"
    },
    {
      "inputs": [],
      "name": "accountOwner",
      "outputs": [
        {
          "internalType": "address payable",
          "name": "",
          "type": "address"
        }
      ],
      "stateMutability": "view",
      "type": "function"
    },
    {
      "inputs": [
        {
          "internalType": "uint256",
          "name": "amount",
          "type": "uint256"
        }
      ],
      "name": "addFunds",
      "outputs": [],
      "stateMutability": "payable",
      "type": "function"
    },
    {
      "inputs": [
        {
          "internalType": "uint256",
          "name": "newKey",
          "type": "uint256"
        }
      ],
      "name": "changeSecretKey",
      "outputs": [],
      "stateMutability": "nonpayable",
      "type": "function"
    },
    {
      "inputs": [],
      "name": "getAccountFunds",
      "outputs": [
        {
          "internalType": "uint256",
          "name": "",
          "type": "uint256"
        }
      ],
      "stateMutability": "view",
      "type": "function"
    },
    {
      "inputs": [],
      "name": "getSecretKey",
      "outputs": [
        {
          "internalType": "uint256",
          "name": "",
          "type": "uint256"
        }
      ],
      "stateMutability": "view",
      "type": "function"
    },
    {
      "inputs": [],
      "name": "loanAmount",
      "outputs": [
        {
          "internalType": "uint256",
          "name": "",
          "type": "uint256"
        }
      ],
      "stateMutability": "view",
      "type": "function"
    },
    {
      "inputs": [],
      "name": "loanDuration",
      "outputs": [
        {
          "internalType": "uint256",
          "name": "",
          "type": "uint256"
        }
      ],
      "stateMutability": "view",
      "type": "function"
    },
    {
      "inputs": [],
      "name": "monthlyInstallment",
      "outputs": [
        {
          "internalType": "uint256",
          "name": "",
          "type": "uint256"
        }
      ],
      "stateMutability": "view",
      "type": "function"
    },
    {
      "inputs": [
        {
          "internalType": "uint256",
          "name": "requestedAmount",
          "type": "uint256"
        },
        {
          "internalType": "uint256",
          "name": "termInMonths",
          "type": "uint256"
        }
      ],
      "name": "requestLoan",
      "outputs": [],
      "stateMutability": "nonpayable",
      "type": "function"
    },
    {
      "inputs": [],
      "name": "secretKey",
      "outputs": [
        {
          "internalType": "uint256",
          "name": "",
          "type": "uint256"
        }
      ],
      "stateMutability": "view",
      "type": "function"
    },
    {
      "inputs": [
        {
          "internalType": "uint256",
          "name": "withdrawalAmount",
          "type": "uint256"
        }
      ],
      "name": "withdrawFunds",
      "outputs": [],
      "stateMutability": "nonpayable",
      "type": "function"
    }
  ],
  "bytecode": "0x6080604052604051610d84380380610d84833981810160405281019061002591906100b5565b336000806101000a81548173ffffffffffffffffffffffffffffffffffffffff021916908373ffffffffffffffffffffffffffffffffffffffff160217905550816001819055508060028190555050506100f5565b600080fd5b6000819050919050565b6100928161007f565b811461009d57600080fd5b50565b6000815190506100af81610089565b92915050565b600080604083850312156100cc576100cb61007a565b5b60006100da858286016100a0565b92505060206100eb858286016100a0565b9150509250929050565b610c80806101046000396000f3fe6080604052600436106100a75760003560e01c80638d9286c5116100645780638d9286c5146101aa5780639d585f7f146101d5578063a59b3de014610200578063aa452fa61461022b578063be99970514610254578063f5521bf114610270576100a7565b8063155dd5ee146100ac5780631c16103b146100d55780633a2077fa14610100578063674ddb531461012b578063776294b01461015657806379ed40bc1461017f575b600080fd5b3480156100b857600080fd5b506100d360048036038101906100ce9190610856565b61029b565b005b3480156100e157600080fd5b506100ea6103ec565b6040516100f79190610892565b60405180910390f35b34801561010c57600080fd5b506101156103f2565b6040516101229190610892565b60405180910390f35b34801561013757600080fd5b506101406103f8565b60405161014d91906108ee565b60405180910390f35b34801561016257600080fd5b5061017d60048036038101906101789190610856565b61041c565b005b34801561018b57600080fd5b506101946104eb565b6040516101a19190610892565b60405180910390f35b3480156101b657600080fd5b506101bf610584565b6040516101cc9190610892565b60405180910390f35b3480156101e157600080fd5b506101ea61058e565b6040516101f79190610892565b60405180910390f35b34801561020c57600080fd5b50610215610594565b6040516102229190610892565b60405180910390f35b34801561023757600080fd5b50610252600480360381019061024d9190610909565b61059a565b005b61026e60048036038101906102699190610856565b61070f565b005b34801561027c57600080fd5b50610285610815565b6040516102929190610892565b60405180910390f35b60008054906101000a900473ffffffffffffffffffffffffffffffffffffffff1673ffffffffffffffffffffffffffffffffffffffff163373ffffffffffffffffffffffffffffffffffffffff1614610329576040517f08c379a0000000000000000000000000000000000000000000000000000000008152600401610320906109a6565b60405180910390fd5b6000600154905081600154101561037b57600154826040517f03eb8b540000000000000000000000000000000000000000000000000000000081526004016103729291906109c6565b60405180910390fd5b816001600082825461038d9190610a1e565b9250508190555081816103a09190610a1e565b600154146103b1576103b0610a52565b5b7f4a37b25aab49761ecf63117fe82b98d750917451133cf797507bc9fb5b96044a826040516103e09190610892565b60405180910390a15050565b60015481565b60025481565b60008054906101000a900473ffffffffffffffffffffffffffffffffffffffff1681565b60008054906101000a900473ffffffffffffffffffffffffffffffffffffffff1673ffffffffffffffffffffffffffffffffffffffff163373ffffffffffffffffffffffffffffffffffffffff16146104aa576040517f08c379a00000000000000000000000000000000000000000000000000000000081526004016104a1906109a6565b60405180910390fd5b806002819055507f7f17b9f2eaf249a4919a5a335f548db480ba6863726b22c32e02f1cc343c4a6a816040516104e09190610892565b60405180910390a150565b60008060009054906101000a900473ffffffffffffffffffffffffffffffffffffffff1673ffffffffffffffffffffffffffffffffffffffff163373ffffffffffffffffffffffffffffffffffffffff161461057c576040517f08c379a0000000000000000000000000000000000000000000000000000000008152600401610573906109a6565b60405180910390fd5b600254905090565b6000600154905090565b60035481565b60055481565b60008054906101000a900473ffffffffffffffffffffffffffffffffffffffff1673ffffffffffffffffffffffffffffffffffffffff163373ffffffffffffffffffffffffffffffffffffffff1614610628576040517f08c379a000000000000000000000000000000000000000000000000000000000815260040161061f906109a6565b60405180910390fd5b6000821161066b576040517f08c379a000000000000000000000000000000000000000000000000000000000815260040161066290610af3565b60405180910390fd5b600081116106ae576040517f08c379a00000000000000000000000000000000000000000000000000000000081526004016106a590610b5f565b60405180910390fd5b816003819055508060048190555080826106c89190610bae565b6005819055507f8fafaf94136563adbf04494aaae5ed82af770ebe54e29b215dcdc264079b048a828260055460405161070393929190610bdf565b60405180910390a15050565b60008054906101000a900473ffffffffffffffffffffffffffffffffffffffff1673ffffffffffffffffffffffffffffffffffffffff163373ffffffffffffffffffffffffffffffffffffffff161461079d576040517f08c379a0000000000000000000000000000000000000000000000000000000008152600401610794906109a6565b60405180910390fd5b6000600154905081600160008282546107b69190610c16565b9250508190555081816107c99190610c16565b600154146107da576107d9610a52565b5b7fd30fc8a1b5907be76206421a3040262f1f6aed0d418c05312ef5ff8de0c9ae4c826040516108099190610892565b60405180910390a15050565b60045481565b600080fd5b6000819050919050565b61083381610820565b811461083e57600080fd5b50565b6000813590506108508161082a565b92915050565b60006020828403121561086c5761086b61081b565b5b600061087a84828501610841565b91505092915050565b61088c81610820565b82525050565b60006020820190506108a76000830184610883565b92915050565b600073ffffffffffffffffffffffffffffffffffffffff82169050919050565b60006108d8826108ad565b9050919050565b6108e8816108cd565b82525050565b600060208201905061090360008301846108df565b92915050565b600080604083850312156109205761091f61081b565b5b600061092e85828601610841565b925050602061093f85828601610841565b9150509250929050565b600082825260208201905092915050565b7f596f7520617265206e6f7420746865206163636f756e74206f776e6572000000600082015250565b6000610990601d83610949565b915061099b8261095a565b602082019050919050565b600060208201905081810360008301526109bf81610983565b9050919050565b60006040820190506109db6000830185610883565b6109e86020830184610883565b9392505050565b7f4e487b7100000000000000000000000000000000000000000000000000000000600052601160045260246000fd5b6000610a2982610820565b9150610a3483610820565b9250828203905081811115610a4c57610a4b6109ef565b5b92915050565b7f4e487b7100000000000000000000000000000000000000000000000000000000600052600160045260246000fd5b7f4c6f616e20616d6f756e74206d7573742062652067726561746572207468616e60008201527f2030000000000000000000000000000000000000000000000000000000000000602082015250565b6000610add602283610949565b9150610ae882610a81565b604082019050919050565b60006020820190508181036000830152610b0c81610ad0565b9050919050565b7f4c6f616e207465726d206d7573742062652067726561746572207468616e2030600082015250565b6000610b49602083610949565b9150610b5482610b13565b602082019050919050565b60006020820190508181036000830152610b7881610b3c565b9050919050565b7f4e487b7100000000000000000000000000000000000000000000000000000000600052601260045260246000fd5b6000610bb982610820565b9150610bc483610820565b925082610bd457610bd3610b7f565b5b828204905092915050565b6000606082019050610bf46000830186610883565b610c016020830185610883565b610c0e6040830184610883565b949350505050565b6000610c2182610820565b9150610c2c83610820565b9250828201905080821115610c4457610c436109ef565b5b9291505056fea26469706673582212205f62bbd0e3d5869c41bc0606ba1e37eb651fe45a2d9d2e6d4783a8fd10a6379164736f6c63430008110033",
  "linkReferences": {},
  "deployedLinkReferences": {}
}